{
  "address": "0xDc64a140Aa3E981100a9becA4E685f962f0cF6C9",
  "abi": [
    {
      "anonymous": false,
      "inputs": [
        {
          "indexed": false,
          "internalType": "uint8",
          "name": "version",
          "type": "uint8"
        }
      ],
      "name": "Initialized",
      "type": "event"
    },
    {
      "anonymous": false,
      "inputs": [
        {
          "indexed": true,
          "internalType": "address",
          "name": "previousOwner",
          "type": "address"
        },
        {
          "indexed": true,
          "internalType": "address",
          "name": "newOwner",
          "type": "address"
        }
      ],
      "name": "OwnershipTransferred",
      "type": "event"
    },
    {
      "anonymous": false,
      "inputs": [
        {
          "indexed": false,
          "internalType": "uint256",
          "name": "newValue",
          "type": "uint256"
        }
      ],
      "name": "ValueChanged",
      "type": "event"
    },
    {
      "inputs": [],
      "name": "getValue",
      "outputs": [
        {
          "internalType": "uint256",
          "name": "",
          "type": "uint256"
        }
      ],
      "stateMutability": "view",
      "type": "function"
    },
    {
      "inputs": [],
      "name": "increment",
      "outputs": [],
      "stateMutability": "nonpayable",
      "type": "function"
    },
    {
      "inputs": [
        {
          "internalType": "uint256",
          "name": "_value",
          "type": "uint256"
        },
        {
          "internalType": "address",
          "name": "_owner",
          "type": "address"
        }
      ],
      "name": "initialize",
      "outputs": [],
      "stateMutability": "nonpayable",
      "type": "function"
    },
    {
      "inputs": [],
      "name": "owner",
      "outputs": [
        {
          "internalType": "address",
          "name": "",
          "type": "address"
        }
      ],
      "stateMutability": "view",
      "type": "function"
    },
    {
      "inputs": [],
      "name": "renounceOwnership",
      "outputs": [],
      "stateMutability": "nonpayable",
      "type": "function"
    },
    {
      "inputs": [],
      "name": "retrieve",
      "outputs": [
        {
          "internalType": "uint256",
          "name": "",
          "type": "uint256"
        }
      ],
      "stateMutability": "view",
      "type": "function"
    },
    {
      "inputs": [
        {
          "internalType": "uint256",
          "name": "newValue",
          "type": "uint256"
        }
      ],
      "name": "setX",
      "outputs": [],
      "stateMutability": "nonpayable",
      "type": "function"
    },
    {
      "inputs": [],
      "name": "setup",
      "outputs": [],
      "stateMutability": "nonpayable",
      "type": "function"
    },
    {
      "inputs": [
        {
          "internalType": "uint256",
          "name": "newValue",
          "type": "uint256"
        }
      ],
      "name": "store",
      "outputs": [],
      "stateMutability": "nonpayable",
      "type": "function"
    },
    {
      "inputs": [
        {
          "internalType": "address",
          "name": "newOwner",
          "type": "address"
        }
      ],
      "name": "transferOwnership",
      "outputs": [],
      "stateMutability": "nonpayable",
      "type": "function"
    },
    {
      "inputs": [],
      "name": "x",
      "outputs": [
        {
          "internalType": "uint256",
          "name": "",
          "type": "uint256"
        }
      ],
      "stateMutability": "view",
      "type": "function"
    }
  ],
  "transactionHash": "0x4abcdf9e2a8e8c67950d0b1d6cfd83c9fd12e330519c64a4131a2067bc60b6f7",
  "args": [],
  "numDeployments": 1,
  "solcInputHash": "3660582bb5001ae30aca00f5f4cbf226",
  "bytecode": "0x608060405234801561001057600080fd5b50610b83806100206000396000f3fe608060405234801561001057600080fd5b50600436106100a95760003560e01c8063715018a611610071578063715018a6146101405780638da5cb5b1461014a578063ba0bba4014610168578063d09de08a14610172578063da35a26f1461017c578063f2fde38b14610198576100a9565b80630c55699c146100ae57806320965255146100cc5780632e64cec1146100ea5780634018d9aa146101085780636057361d14610124575b600080fd5b6100b66101b4565b6040516100c391906106dc565b60405180910390f35b6100d46101ba565b6040516100e191906106dc565b60405180910390f35b6100f26101c4565b6040516100ff91906106dc565b60405180910390f35b610122600480360381019061011d9190610728565b6101ce565b005b61013e60048036038101906101399190610728565b6101e0565b005b610148610221565b005b610152610235565b60405161015f9190610796565b60405180910390f35b61017061025f565b005b61017a61026a565b005b610196600480360381019061019191906107dd565b6102ba565b005b6101b260048036038101906101ad919061081d565b610417565b005b60665481565b6000606654905090565b6000606554905090565b6101d661049a565b8060668190555050565b806065819055507f93fe6d397c74fdf1402a8b72e47b68512f0510d7b98a4bc4cbdf6ac7108b3c598160405161021691906106dc565b60405180910390a150565b61022961049a565b6102336000610518565b565b6000603360009054906101000a900473ffffffffffffffffffffffffffffffffffffffff16905090565b6102bc606681905550565b60016065546102799190610879565b6065819055507f93fe6d397c74fdf1402a8b72e47b68512f0510d7b98a4bc4cbdf6ac7108b3c596065546040516102b091906106dc565b60405180910390a1565b60008060019054906101000a900460ff161590508080156102eb5750600160008054906101000a900460ff1660ff16105b8061031857506102fa306105de565b1580156103175750600160008054906101000a900460ff1660ff16145b5b610357576040517f08c379a000000000000000000000000000000000000000000000000000000000815260040161034e90610930565b60405180910390fd5b60016000806101000a81548160ff021916908360ff1602179055508015610394576001600060016101000a81548160ff0219169083151502179055505b61039c610601565b6103b97370997970c51812dc3a010c7d01b50e0d17dc79c8610417565b80156104125760008060016101000a81548160ff0219169083151502179055507f7f26b83ff96e1f2b6a682f133852f6798a09c465da95921460cefb3847402498600160405161040991906109a2565b60405180910390a15b505050565b61041f61049a565b600073ffffffffffffffffffffffffffffffffffffffff168173ffffffffffffffffffffffffffffffffffffffff160361048e576040517f08c379a000000000000000000000000000000000000000000000000000000000815260040161048590610a2f565b60405180910390fd5b61049781610518565b50565b6104a261065a565b73ffffffffffffffffffffffffffffffffffffffff166104c0610235565b73ffffffffffffffffffffffffffffffffffffffff1614610516576040517f08c379a000000000000000000000000000000000000000000000000000000000815260040161050d90610a9b565b60405180910390fd5b565b6000603360009054906101000a900473ffffffffffffffffffffffffffffffffffffffff16905081603360006101000a81548173ffffffffffffffffffffffffffffffffffffffff021916908373ffffffffffffffffffffffffffffffffffffffff1602179055508173ffffffffffffffffffffffffffffffffffffffff168173ffffffffffffffffffffffffffffffffffffffff167f8be0079c531659141344cd1fd0a4f28419497f9722a3daafe3b4186f6b6457e060405160405180910390a35050565b6000808273ffffffffffffffffffffffffffffffffffffffff163b119050919050565b600060019054906101000a900460ff16610650576040517f08c379a000000000000000000000000000000000000000000000000000000000815260040161064790610b2d565b60405180910390fd5b610658610662565b565b600033905090565b600060019054906101000a900460ff166106b1576040517f08c379a00000000000000000000000000000000000000000000000000000000081526004016106a890610b2d565b60405180910390fd5b6106c16106bc61065a565b610518565b565b6000819050919050565b6106d6816106c3565b82525050565b60006020820190506106f160008301846106cd565b92915050565b600080fd5b610705816106c3565b811461071057600080fd5b50565b600081359050610722816106fc565b92915050565b60006020828403121561073e5761073d6106f7565b5b600061074c84828501610713565b91505092915050565b600073ffffffffffffffffffffffffffffffffffffffff82169050919050565b600061078082610755565b9050919050565b61079081610775565b82525050565b60006020820190506107ab6000830184610787565b92915050565b6107ba81610775565b81146107c557600080fd5b50565b6000813590506107d7816107b1565b92915050565b600080604083850312156107f4576107f36106f7565b5b600061080285828601610713565b9250506020610813858286016107c8565b9150509250929050565b600060208284031215610833576108326106f7565b5b6000610841848285016107c8565b91505092915050565b7f4e487b7100000000000000000000000000000000000000000000000000000000600052601160045260246000fd5b6000610884826106c3565b915061088f836106c3565b92508282019050808211156108a7576108a661084a565b5b92915050565b600082825260208201905092915050565b7f496e697469616c697a61626c653a20636f6e747261637420697320616c72656160008201527f647920696e697469616c697a6564000000000000000000000000000000000000602082015250565b600061091a602e836108ad565b9150610925826108be565b604082019050919050565b600060208201905081810360008301526109498161090d565b9050919050565b6000819050919050565b600060ff82169050919050565b6000819050919050565b600061098c61098761098284610950565b610967565b61095a565b9050919050565b61099c81610971565b82525050565b60006020820190506109b76000830184610993565b92915050565b7f4f776e61626c653a206e6577206f776e657220697320746865207a65726f206160008201527f6464726573730000000000000000000000000000000000000000000000000000602082015250565b6000610a196026836108ad565b9150610a24826109bd565b604082019050919050565b60006020820190508181036000830152610a4881610a0c565b9050919050565b7f4f776e61626c653a2063616c6c6572206973206e6f7420746865206f776e6572600082015250565b6000610a856020836108ad565b9150610a9082610a4f565b602082019050919050565b60006020820190508181036000830152610ab481610a78565b9050919050565b7f496e697469616c697a61626c653a20636f6e7472616374206973206e6f74206960008201527f6e697469616c697a696e67000000000000000000000000000000000000000000602082015250565b6000610b17602b836108ad565b9150610b2282610abb565b604082019050919050565b60006020820190508181036000830152610b4681610b0a565b905091905056fea2646970667358221220596e680da900e37481b1c0e2e0458a8713c00ecc686e78c970acf07056aa6f6764736f6c63430008120033",
  "devdoc": {
    "events": {
      "Initialized(uint8)": {
        "details": "Triggered when the contract has been initialized or reinitialized."
      }
    },
    "kind": "dev",
    "methods": {
      "owner()": {
        "details": "Returns the address of the current owner."
      },
      "renounceOwnership()": {
        "details": "Leaves the contract without owner. It will not be possible to call `onlyOwner` functions. Can only be called by the current owner. NOTE: Renouncing ownership will leave the contract without an owner, thereby disabling any functionality that is only available to the owner."
      },
      "transferOwnership(address)": {
        "details": "Transfers ownership of the contract to a new account (`newOwner`). Can only be called by the current owner."
      }
    },
    "version": 1
  },
  "userdoc": {
    "kind": "user",
    "methods": {},
    "version": 1
  },
  "storageLayout": {
    "storage": [
      {
        "astId": 138,
        "contract": "contracts/BoxV2.sol:BoxV2",
        "label": "_initialized",
        "offset": 0,
        "slot": "0",
        "type": "t_uint8"
      },
      {
        "astId": 141,
        "contract": "contracts/BoxV2.sol:BoxV2",
        "label": "_initializing",
        "offset": 1,
        "slot": "0",
        "type": "t_bool"
      },
      {
        "astId": 671,
        "contract": "contracts/BoxV2.sol:BoxV2",
        "label": "__gap",
        "offset": 0,
        "slot": "1",
        "type": "t_array(t_uint256)50_storage"
      },
      {
        "astId": 10,
        "contract": "contracts/BoxV2.sol:BoxV2",
        "label": "_owner",
        "offset": 0,
        "slot": "51",
        "type": "t_address"
      },
      {
        "astId": 130,
        "contract": "contracts/BoxV2.sol:BoxV2",
        "label": "__gap",
        "offset": 0,
        "slot": "52",
        "type": "t_array(t_uint256)49_storage"
      },
      {
        "astId": 2225,
        "contract": "contracts/BoxV2.sol:BoxV2",
        "label": "value",
        "offset": 0,
        "slot": "101",
        "type": "t_uint256"
      },
      {
        "astId": 2227,
        "contract": "contracts/BoxV2.sol:BoxV2",
        "label": "x",
        "offset": 0,
        "slot": "102",
        "type": "t_uint256"
      }
    ],
    "types": {
      "t_address": {
        "encoding": "inplace",
        "label": "address",
        "numberOfBytes": "20"
      },
      "t_array(t_uint256)49_storage": {
        "base": "t_uint256",
        "encoding": "inplace",
        "label": "uint256[49]",
        "numberOfBytes": "1568"
      },
      "t_array(t_uint256)50_storage": {
        "base": "t_uint256",
        "encoding": "inplace",
        "label": "uint256[50]",
        "numberOfBytes": "1600"
      },
      "t_bool": {
        "encoding": "inplace",
        "label": "bool",
        "numberOfBytes": "1"
      },
      "t_uint256": {
        "encoding": "inplace",
        "label": "uint256",
        "numberOfBytes": "32"
      },
      "t_uint8": {
        "encoding": "inplace",
        "label": "uint8",
        "numberOfBytes": "1"
      }
    }
  }
}