{
  "address": "0x844b8E887b1e2561Da375B48a73ec916972592cF",
  "abi": [
    {
      "anonymous": false,
      "inputs": [
        {
          "indexed": false,
          "internalType": "address",
          "name": "contractAddress",
          "type": "address"
        }
      ],
      "name": "Deployed",
      "type": "event"
    },
    {
      "anonymous": false,
      "inputs": [
        {
          "indexed": true,
          "internalType": "address",
          "name": "previousOwner",
          "type": "address"
        },
        {
          "indexed": true,
          "internalType": "address",
          "name": "newOwner",
          "type": "address"
        }
      ],
      "name": "OwnershipTransferred",
      "type": "event"
    },
    {
      "inputs": [
        {
          "internalType": "bytes32",
          "name": "_salt",
          "type": "bytes32"
        },
        {
          "internalType": "bytes",
          "name": "_creationCode",
          "type": "bytes"
        }
      ],
      "name": "deploy",
      "outputs": [
        {
          "internalType": "address",
          "name": "deployed",
          "type": "address"
        }
      ],
      "stateMutability": "payable",
      "type": "function"
    },
    {
      "inputs": [
        {
          "internalType": "address",
          "name": "_deployer",
          "type": "address"
        },
        {
          "internalType": "bytes32",
          "name": "_salt",
          "type": "bytes32"
        }
      ],
      "name": "getDeployedAddress",
      "outputs": [
        {
          "internalType": "address",
          "name": "",
          "type": "address"
        }
      ],
      "stateMutability": "view",
      "type": "function"
    },
    {
      "inputs": [],
      "name": "owner",
      "outputs": [
        {
          "internalType": "address",
          "name": "",
          "type": "address"
        }
      ],
      "stateMutability": "view",
      "type": "function"
    },
    {
      "inputs": [],
      "name": "renounceOwnership",
      "outputs": [],
      "stateMutability": "nonpayable",
      "type": "function"
    },
    {
      "inputs": [
        {
          "internalType": "address",
          "name": "newOwner",
          "type": "address"
        }
      ],
      "name": "transferOwnership",
      "outputs": [],
      "stateMutability": "nonpayable",
      "type": "function"
    }
  ],
  "transactionHash": "0x0388839127919c8e5f3b493d590b7cee8f96d014c9e06c7c66c8ff0afc554f98",
  "args": [],
  "numDeployments": 1,
  "solcInputHash": "3660582bb5001ae30aca00f5f4cbf226",
  "bytecode": "0x608060405234801561001057600080fd5b5061002d61002261003260201b60201c565b61003a60201b60201c565b6100fe565b600033905090565b60008060009054906101000a900473ffffffffffffffffffffffffffffffffffffffff169050816000806101000a81548173ffffffffffffffffffffffffffffffffffffffff021916908373ffffffffffffffffffffffffffffffffffffffff1602179055508173ffffffffffffffffffffffffffffffffffffffff168173ffffffffffffffffffffffffffffffffffffffff167f8be0079c531659141344cd1fd0a4f28419497f9722a3daafe3b4186f6b6457e060405160405180910390a35050565b610dda8061010d6000396000f3fe60806040526004361061004a5760003560e01c80634e6553041461004f578063715018a61461008c5780638da5cb5b146100a3578063cdcb760a146100ce578063f2fde38b146100fe575b600080fd5b34801561005b57600080fd5b50610076600480360381019061007191906106f8565b610127565b6040516100839190610747565b60405180910390f35b34801561009857600080fd5b506100a1610167565b005b3480156100af57600080fd5b506100b861017b565b6040516100c59190610747565b60405180910390f35b6100e860048036038101906100e391906108a8565b6101a4565b6040516100f59190610747565b60405180910390f35b34801561010a57600080fd5b5061012560048036038101906101209190610904565b610226565b005b600080838360405160200161013d92919061099a565b60405160208183030381529060405280519060200120905061015e816102a9565b91505092915050565b61016f61035a565b61017960006103d8565b565b60008060009054906101000a900473ffffffffffffffffffffffffffffffffffffffff16905090565b60006101ae61035a565b600033846040516020016101c392919061099a565b6040516020818303038152906040528051906020012090506101e681843461049c565b91507ff40fcec21964ffb566044d083b4073f29f7f7929110ea19e1b3ebe375d89055e826040516102179190610747565b60405180910390a15092915050565b61022e61035a565b600073ffffffffffffffffffffffffffffffffffffffff168173ffffffffffffffffffffffffffffffffffffffff160361029d576040517f08c379a000000000000000000000000000000000000000000000000000000000815260040161029490610a49565b60405180910390fd5b6102a6816103d8565b50565b60008061032160ff60f81b30856040518060400160405280601081526020017f67363d3d37363d34f03d5260086018f300000000000000000000000000000000815250805190602001206040516020016103069493929190610ab6565b6040516020818303038152906040528051906020012061063b565b9050610352816040516020016103379190610ba7565b6040516020818303038152906040528051906020012061063b565b915050919050565b610362610648565b73ffffffffffffffffffffffffffffffffffffffff1661038061017b565b73ffffffffffffffffffffffffffffffffffffffff16146103d6576040517f08c379a00000000000000000000000000000000000000000000000000000000081526004016103cd90610c24565b60405180910390fd5b565b60008060009054906101000a900473ffffffffffffffffffffffffffffffffffffffff169050816000806101000a81548173ffffffffffffffffffffffffffffffffffffffff021916908373ffffffffffffffffffffffffffffffffffffffff1602179055508173ffffffffffffffffffffffffffffffffffffffff168173ffffffffffffffffffffffffffffffffffffffff167f8be0079c531659141344cd1fd0a4f28419497f9722a3daafe3b4186f6b6457e060405160405180910390a35050565b6000806040518060400160405280601081526020017f67363d3d37363d34f03d5260086018f30000000000000000000000000000000081525090506000858251602084016000f59050600073ffffffffffffffffffffffffffffffffffffffff168173ffffffffffffffffffffffffffffffffffffffff1603610554576040517f08c379a000000000000000000000000000000000000000000000000000000000815260040161054b90610c90565b60405180910390fd5b61055d866102a9565b925060008173ffffffffffffffffffffffffffffffffffffffff1685876040516105879190610d21565b60006040518083038185875af1925050503d80600081146105c4576040519150601f19603f3d011682016040523d82523d6000602084013e6105c9565b606091505b505090508080156105f2575060008473ffffffffffffffffffffffffffffffffffffffff163b14155b610631576040517f08c379a000000000000000000000000000000000000000000000000000000000815260040161062890610d84565b60405180910390fd5b5050509392505050565b60008160001c9050919050565b600033905090565b6000604051905090565b600080fd5b600080fd5b600073ffffffffffffffffffffffffffffffffffffffff82169050919050565b600061068f82610664565b9050919050565b61069f81610684565b81146106aa57600080fd5b50565b6000813590506106bc81610696565b92915050565b6000819050919050565b6106d5816106c2565b81146106e057600080fd5b50565b6000813590506106f2816106cc565b92915050565b6000806040838503121561070f5761070e61065a565b5b600061071d858286016106ad565b925050602061072e858286016106e3565b9150509250929050565b61074181610684565b82525050565b600060208201905061075c6000830184610738565b92915050565b600080fd5b600080fd5b6000601f19601f8301169050919050565b7f4e487b7100000000000000000000000000000000000000000000000000000000600052604160045260246000fd5b6107b58261076c565b810181811067ffffffffffffffff821117156107d4576107d361077d565b5b80604052505050565b60006107e7610650565b90506107f382826107ac565b919050565b600067ffffffffffffffff8211156108135761081261077d565b5b61081c8261076c565b9050602081019050919050565b82818337600083830152505050565b600061084b610846846107f8565b6107dd565b90508281526020810184848401111561086757610866610767565b5b610872848285610829565b509392505050565b600082601f83011261088f5761088e610762565b5b813561089f848260208601610838565b91505092915050565b600080604083850312156108bf576108be61065a565b5b60006108cd858286016106e3565b925050602083013567ffffffffffffffff8111156108ee576108ed61065f565b5b6108fa8582860161087a565b9150509250929050565b60006020828403121561091a5761091961065a565b5b6000610928848285016106ad565b91505092915050565b60008160601b9050919050565b600061094982610931565b9050919050565b600061095b8261093e565b9050919050565b61097361096e82610684565b610950565b82525050565b6000819050919050565b61099461098f826106c2565b610979565b82525050565b60006109a68285610962565b6014820191506109b68284610983565b6020820191508190509392505050565b600082825260208201905092915050565b7f4f776e61626c653a206e6577206f776e657220697320746865207a65726f206160008201527f6464726573730000000000000000000000000000000000000000000000000000602082015250565b6000610a336026836109c6565b9150610a3e826109d7565b604082019050919050565b60006020820190508181036000830152610a6281610a26565b9050919050565b60007fff0000000000000000000000000000000000000000000000000000000000000082169050919050565b6000819050919050565b610ab0610aab82610a69565b610a95565b82525050565b6000610ac28287610a9f565b600182019150610ad28286610962565b601482019150610ae28285610983565b602082019150610af28284610983565b60208201915081905095945050505050565b600081905092915050565b7fd694000000000000000000000000000000000000000000000000000000000000600082015250565b6000610b45600283610b04565b9150610b5082610b0f565b600282019050919050565b7f0100000000000000000000000000000000000000000000000000000000000000600082015250565b6000610b91600183610b04565b9150610b9c82610b5b565b600182019050919050565b6000610bb282610b38565b9150610bbe8284610962565b601482019150610bcd82610b84565b915081905092915050565b7f4f776e61626c653a2063616c6c6572206973206e6f7420746865206f776e6572600082015250565b6000610c0e6020836109c6565b9150610c1982610bd8565b602082019050919050565b60006020820190508181036000830152610c3d81610c01565b9050919050565b7f4445504c4f594d454e545f4641494c4544000000000000000000000000000000600082015250565b6000610c7a6011836109c6565b9150610c8582610c44565b602082019050919050565b60006020820190508181036000830152610ca981610c6d565b9050919050565b600081519050919050565b600081905092915050565b60005b83811015610ce4578082015181840152602081019050610cc9565b60008484015250505050565b6000610cfb82610cb0565b610d058185610cbb565b9350610d15818560208601610cc6565b80840191505092915050565b6000610d2d8284610cf0565b915081905092915050565b7f494e495449414c495a4154494f4e5f4641494c45440000000000000000000000600082015250565b6000610d6e6015836109c6565b9150610d7982610d38565b602082019050919050565b60006020820190508181036000830152610d9d81610d61565b905091905056fea264697066735822122096ae41806a35387971ea00b9818d3d48e95ec143af687fb2e73be5a20d03259564736f6c63430008120033",
  "devdoc": {
    "kind": "dev",
    "methods": {
      "owner()": {
        "details": "Returns the address of the current owner."
      },
      "renounceOwnership()": {
        "details": "Leaves the contract without owner. It will not be possible to call `onlyOwner` functions. Can only be called by the current owner. NOTE: Renouncing ownership will leave the contract without an owner, thereby disabling any functionality that is only available to the owner."
      },
      "transferOwnership(address)": {
        "details": "Transfers ownership of the contract to a new account (`newOwner`). Can only be called by the current owner."
      }
    },
    "version": 1
  },
  "userdoc": {
    "kind": "user",
    "methods": {},
    "version": 1
  },
  "storageLayout": {
    "storage": [
      {
        "astId": 680,
        "contract": "contracts/Create3Factory.sol:Create3Factory",
        "label": "_owner",
        "offset": 0,
        "slot": "0",
        "type": "t_address"
      }
    ],
    "types": {
      "t_address": {
        "encoding": "inplace",
        "label": "address",
        "numberOfBytes": "20"
      }
    }
  }
}